{"contracts/EthFailedBank.sol":{"EthFailedBank":{"abi":[{"inputs":[{"internalType":"address","name":"","type":"address"}],"name":"balances","outputs":[{"internalType":"uint256","name":"","type":"uint256"}],"stateMutability":"view","type":"function"},{"inputs":[],"name":"deposit","outputs":[],"stateMutability":"payable","type":"function"},{"inputs":[{"internalType":"address","name":"_addr","type":"address"}],"name":"getBalance","outputs":[{"internalType":"uint256","name":"","type":"uint256"}],"stateMutability":"view","type":"function"},{"inputs":[],"name":"withdraw","outputs":[],"stateMutability":"payable","type":"function"}],"evm":{"bytecode":{"linkReferences":{},"object":"608060405234801561001057600080fd5b506104da806100206000396000f3fe60806040526004361061003f5760003560e01c806327e235e3146100445780633ccfd60b14610081578063d0e30db01461008b578063f8b2cb4f14610095575b600080fd5b34801561005057600080fd5b5061006b6004803603810190610066919061031d565b6100d2565b6040516100789190610363565b60405180910390f35b6100896100ea565b005b61009361021b565b005b3480156100a157600080fd5b506100bc60048036038101906100b7919061031d565b610272565b6040516100c99190610363565b60405180910390f35b60006020528060005260406000206000915090505481565b60003373ffffffffffffffffffffffffffffffffffffffff166000803373ffffffffffffffffffffffffffffffffffffffff1673ffffffffffffffffffffffffffffffffffffffff1681526020019081526020016000205460405161014e906103af565b60006040518083038185875af1925050503d806000811461018b576040519150601f19603f3d011682016040523d82523d6000602084013e610190565b606091505b50509050806101d4576040517f08c379a00000000000000000000000000000000000000000000000000000000081526004016101cb90610421565b60405180910390fd5b60008060003373ffffffffffffffffffffffffffffffffffffffff1673ffffffffffffffffffffffffffffffffffffffff1681526020019081526020016000208190555050565b346000803373ffffffffffffffffffffffffffffffffffffffff1673ffffffffffffffffffffffffffffffffffffffff16815260200190815260200160002060008282546102699190610470565b92505081905550565b60008060008373ffffffffffffffffffffffffffffffffffffffff1673ffffffffffffffffffffffffffffffffffffffff168152602001908152602001600020549050919050565b600080fd5b600073ffffffffffffffffffffffffffffffffffffffff82169050919050565b60006102ea826102bf565b9050919050565b6102fa816102df565b811461030557600080fd5b50565b600081359050610317816102f1565b92915050565b600060208284031215610333576103326102ba565b5b600061034184828501610308565b91505092915050565b6000819050919050565b61035d8161034a565b82525050565b60006020820190506103786000830184610354565b92915050565b600081905092915050565b50565b600061039960008361037e565b91506103a482610389565b600082019050919050565b60006103ba8261038c565b9150819050919050565b600082825260208201905092915050565b7f6661696c656420746f2073656e64204554480000000000000000000000000000600082015250565b600061040b6012836103c4565b9150610416826103d5565b602082019050919050565b6000602082019050818103600083015261043a816103fe565b9050919050565b7f4e487b7100000000000000000000000000000000000000000000000000000000600052601160045260246000fd5b600061047b8261034a565b91506104868361034a565b925082820190508082111561049e5761049d610441565b5b9291505056fea26469706673582212202efa9d67bb87df089b3a20ee241fc4ac57b7e51f42e167258fcbea47ad4c6cce64736f6c63430008120033","opcodes":"PUSH1 0x80 PUSH1 0x40 MSTORE CALLVALUE DUP1 ISZERO PUSH2 0x10 JUMPI PUSH1 0x0 DUP1 REVERT JUMPDEST POP PUSH2 0x4DA DUP1 PUSH2 0x20 PUSH1 0x0 CODECOPY PUSH1 0x0 RETURN INVALID PUSH1 0x80 PUSH1 0x40 MSTORE PUSH1 0x4 CALLDATASIZE LT PUSH2 0x3F JUMPI PUSH1 0x0 CALLDATALOAD PUSH1 0xE0 SHR DUP1 PUSH4 0x27E235E3 EQ PUSH2 0x44 JUMPI DUP1 PUSH4 0x3CCFD60B EQ PUSH2 0x81 JUMPI DUP1 PUSH4 0xD0E30DB0 EQ PUSH2 0x8B JUMPI DUP1 PUSH4 0xF8B2CB4F EQ PUSH2 0x95 JUMPI JUMPDEST PUSH1 0x0 DUP1 REVERT JUMPDEST CALLVALUE DUP1 ISZERO PUSH2 0x50 JUMPI PUSH1 0x0 DUP1 REVERT JUMPDEST POP PUSH2 0x6B PUSH1 0x4 DUP1 CALLDATASIZE SUB DUP2 ADD SWAP1 PUSH2 0x66 SWAP2 SWAP1 PUSH2 0x31D JUMP JUMPDEST PUSH2 0xD2 JUMP JUMPDEST PUSH1 0x40 MLOAD PUSH2 0x78 SWAP2 SWAP1 PUSH2 0x363 JUMP JUMPDEST PUSH1 0x40 MLOAD DUP1 SWAP2 SUB SWAP1 RETURN JUMPDEST PUSH2 0x89 PUSH2 0xEA JUMP JUMPDEST STOP JUMPDEST PUSH2 0x93 PUSH2 0x21B JUMP JUMPDEST STOP JUMPDEST CALLVALUE DUP1 ISZERO PUSH2 0xA1 JUMPI PUSH1 0x0 DUP1 REVERT JUMPDEST POP PUSH2 0xBC PUSH1 0x4 DUP1 CALLDATASIZE SUB DUP2 ADD SWAP1 PUSH2 0xB7 SWAP2 SWAP1 PUSH2 0x31D JUMP JUMPDEST PUSH2 0x272 JUMP JUMPDEST PUSH1 0x40 MLOAD PUSH2 0xC9 SWAP2 SWAP1 PUSH2 0x363 JUMP JUMPDEST PUSH1 0x40 MLOAD DUP1 SWAP2 SUB SWAP1 RETURN JUMPDEST PUSH1 0x0 PUSH1 0x20 MSTORE DUP1 PUSH1 0x0 MSTORE PUSH1 0x40 PUSH1 0x0 KECCAK256 PUSH1 0x0 SWAP2 POP SWAP1 POP SLOAD DUP2 JUMP JUMPDEST PUSH1 0x0 CALLER PUSH20 0xFFFFFFFFFFFFFFFFFFFFFFFFFFFFFFFFFFFFFFFF AND PUSH1 0x0 DUP1 CALLER PUSH20 0xFFFFFFFFFFFFFFFFFFFFFFFFFFFFFFFFFFFFFFFF AND PUSH20 0xFFFFFFFFFFFFFFFFFFFFFFFFFFFFFFFFFFFFFFFF AND DUP2 MSTORE PUSH1 0x20 ADD SWAP1 DUP2 MSTORE PUSH1 0x20 ADD PUSH1 0x0 KECCAK256 SLOAD PUSH1 0x40 MLOAD PUSH2 0x14E SWAP1 PUSH2 0x3AF JUMP JUMPDEST PUSH1 0x0 PUSH1 0x40 MLOAD DUP1 DUP4 SUB DUP2 DUP6 DUP8 GAS CALL SWAP3 POP POP POP RETURNDATASIZE DUP1 PUSH1 0x0 DUP2 EQ PUSH2 0x18B JUMPI PUSH1 0x40 MLOAD SWAP2 POP PUSH1 0x1F NOT PUSH1 0x3F RETURNDATASIZE ADD AND DUP3 ADD PUSH1 0x40 MSTORE RETURNDATASIZE DUP3 MSTORE RETURNDATASIZE PUSH1 0x0 PUSH1 0x20 DUP5 ADD RETURNDATACOPY PUSH2 0x190 JUMP JUMPDEST PUSH1 0x60 SWAP2 POP JUMPDEST POP POP SWAP1 POP DUP1 PUSH2 0x1D4 JUMPI PUSH1 0x40 MLOAD PUSH32 0x8C379A000000000000000000000000000000000000000000000000000000000 DUP2 MSTORE PUSH1 0x4 ADD PUSH2 0x1CB SWAP1 PUSH2 0x421 JUMP JUMPDEST PUSH1 0x40 MLOAD DUP1 SWAP2 SUB SWAP1 REVERT JUMPDEST PUSH1 0x0 DUP1 PUSH1 0x0 CALLER PUSH20 0xFFFFFFFFFFFFFFFFFFFFFFFFFFFFFFFFFFFFFFFF AND PUSH20 0xFFFFFFFFFFFFFFFFFFFFFFFFFFFFFFFFFFFFFFFF AND DUP2 MSTORE PUSH1 0x20 ADD SWAP1 DUP2 MSTORE PUSH1 0x20 ADD PUSH1 0x0 KECCAK256 DUP2 SWAP1 SSTORE POP POP JUMP JUMPDEST CALLVALUE PUSH1 0x0 DUP1 CALLER PUSH20 0xFFFFFFFFFFFFFFFFFFFFFFFFFFFFFFFFFFFFFFFF AND PUSH20 0xFFFFFFFFFFFFFFFFFFFFFFFFFFFFFFFFFFFFFFFF AND DUP2 MSTORE PUSH1 0x20 ADD SWAP1 DUP2 MSTORE PUSH1 0x20 ADD PUSH1 0x0 KECCAK256 PUSH1 0x0 DUP3 DUP3 SLOAD PUSH2 0x269 SWAP2 SWAP1 PUSH2 0x470 JUMP JUMPDEST SWAP3 POP POP DUP2 SWAP1 SSTORE POP JUMP JUMPDEST PUSH1 0x0 DUP1 PUSH1 0x0 DUP4 PUSH20 0xFFFFFFFFFFFFFFFFFFFFFFFFFFFFFFFFFFFFFFFF AND PUSH20 0xFFFFFFFFFFFFFFFFFFFFFFFFFFFFFFFFFFFFFFFF AND DUP2 MSTORE PUSH1 0x20 ADD SWAP1 DUP2 MSTORE PUSH1 0x20 ADD PUSH1 0x0 KECCAK256 SLOAD SWAP1 POP SWAP2 SWAP1 POP JUMP JUMPDEST PUSH1 0x0 DUP1 REVERT JUMPDEST PUSH1 0x0 PUSH20 0xFFFFFFFFFFFFFFFFFFFFFFFFFFFFFFFFFFFFFFFF DUP3 AND SWAP1 POP SWAP2 SWAP1 POP JUMP JUMPDEST PUSH1 0x0 PUSH2 0x2EA DUP3 PUSH2 0x2BF JUMP JUMPDEST SWAP1 POP SWAP2 SWAP1 POP JUMP JUMPDEST PUSH2 0x2FA DUP2 PUSH2 0x2DF JUMP JUMPDEST DUP2 EQ PUSH2 0x305 JUMPI PUSH1 0x0 DUP1 REVERT JUMPDEST POP JUMP JUMPDEST PUSH1 0x0 DUP2 CALLDATALOAD SWAP1 POP PUSH2 0x317 DUP2 PUSH2 0x2F1 JUMP JUMPDEST SWAP3 SWAP2 POP POP JUMP JUMPDEST PUSH1 0x0 PUSH1 0x20 DUP3 DUP5 SUB SLT ISZERO PUSH2 0x333 JUMPI PUSH2 0x332 PUSH2 0x2BA JUMP JUMPDEST JUMPDEST PUSH1 0x0 PUSH2 0x341 DUP5 DUP3 DUP6 ADD PUSH2 0x308 JUMP JUMPDEST SWAP2 POP POP SWAP3 SWAP2 POP POP JUMP JUMPDEST PUSH1 0x0 DUP2 SWAP1 POP SWAP2 SWAP1 POP JUMP JUMPDEST PUSH2 0x35D DUP2 PUSH2 0x34A JUMP JUMPDEST DUP3 MSTORE POP POP JUMP JUMPDEST PUSH1 0x0 PUSH1 0x20 DUP3 ADD SWAP1 POP PUSH2 0x378 PUSH1 0x0 DUP4 ADD DUP5 PUSH2 0x354 JUMP JUMPDEST SWAP3 SWAP2 POP POP JUMP JUMPDEST PUSH1 0x0 DUP2 SWAP1 POP SWAP3 SWAP2 POP POP JUMP JUMPDEST POP JUMP JUMPDEST PUSH1 0x0 PUSH2 0x399 PUSH1 0x0 DUP4 PUSH2 0x37E JUMP JUMPDEST SWAP2 POP PUSH2 0x3A4 DUP3 PUSH2 0x389 JUMP JUMPDEST PUSH1 0x0 DUP3 ADD SWAP1 POP SWAP2 SWAP1 POP JUMP JUMPDEST PUSH1 0x0 PUSH2 0x3BA DUP3 PUSH2 0x38C JUMP JUMPDEST SWAP2 POP DUP2 SWAP1 POP SWAP2 SWAP1 POP JUMP JUMPDEST PUSH1 0x0 DUP3 DUP3 MSTORE PUSH1 0x20 DUP3 ADD SWAP1 POP SWAP3 SWAP2 POP POP JUMP JUMPDEST PUSH32 0x6661696C656420746F2073656E64204554480000000000000000000000000000 PUSH1 0x0 DUP3 ADD MSTORE POP JUMP JUMPDEST PUSH1 0x0 PUSH2 0x40B PUSH1 0x12 DUP4 PUSH2 0x3C4 JUMP JUMPDEST SWAP2 POP PUSH2 0x416 DUP3 PUSH2 0x3D5 JUMP JUMPDEST PUSH1 0x20 DUP3 ADD SWAP1 POP SWAP2 SWAP1 POP JUMP JUMPDEST PUSH1 0x0 PUSH1 0x20 DUP3 ADD SWAP1 POP DUP2 DUP2 SUB PUSH1 0x0 DUP4 ADD MSTORE PUSH2 0x43A DUP2 PUSH2 0x3FE JUMP JUMPDEST SWAP1 POP SWAP2 SWAP1 POP JUMP JUMPDEST PUSH32 0x4E487B7100000000000000000000000000000000000000000000000000000000 PUSH1 0x0 MSTORE PUSH1 0x11 PUSH1 0x4 MSTORE PUSH1 0x24 PUSH1 0x0 REVERT JUMPDEST PUSH1 0x0 PUSH2 0x47B DUP3 PUSH2 0x34A JUMP JUMPDEST SWAP2 POP PUSH2 0x486 DUP4 PUSH2 0x34A JUMP JUMPDEST SWAP3 POP DUP3 DUP3 ADD SWAP1 POP DUP1 DUP3 GT ISZERO PUSH2 0x49E JUMPI PUSH2 0x49D PUSH2 0x441 JUMP JUMPDEST JUMPDEST SWAP3 SWAP2 POP POP JUMP INVALID LOG2 PUSH5 0x6970667358 0x22 SLT KECCAK256 0x2E STATICCALL SWAP14 PUSH8 0xBB87DF089B3A20EE 0x24 0x1F 0xC4 0xAC JUMPI 0xB7 0xE5 0x1F TIMESTAMP 0xE1 PUSH8 0x258FCBEA47AD4C6C 0xCE PUSH5 0x736F6C6343 STOP ADDMOD SLT STOP CALLER "},"methodIdentifiers":{"balances(address)":"27e235e3","deposit()":"d0e30db0","getBalance(address)":"f8b2cb4f","withdraw()":"3ccfd60b"}}}}}